{
    "contractName": "ZombieFactory",
    "abi": [
        {
            "anonymous": false,
            "inputs": [
                {
                    "indexed": false,
                    "internalType": "uint256",
                    "name": "zombieId",
                    "type": "uint256"
                },
                {
                    "indexed": false,
                    "internalType": "string",
                    "name": "name",
                    "type": "string"
                },
                {
                    "indexed": false,
                    "internalType": "uint256",
                    "name": "dna",
                    "type": "uint256"
                }
            ],
            "name": "NewZombie",
            "type": "event"
        },
        {
            "inputs": [
                {
                    "internalType": "string",
                    "name": "_name",
                    "type": "string"
                }
            ],
            "name": "CreateRandomZombie",
            "outputs": [],
            "stateMutability": "nonpayable",
            "type": "function"
        },
        {
            "inputs": [
                {
                    "internalType": "uint256",
                    "name": "",
                    "type": "uint256"
                }
            ],
            "name": "zombieToOwner",
            "outputs": [
                {
                    "internalType": "address",
                    "name": "",
                    "type": "address"
                }
            ],
            "stateMutability": "view",
            "type": "function"
        },
        {
            "inputs": [
                {
                    "internalType": "uint256",
                    "name": "",
                    "type": "uint256"
                }
            ],
            "name": "zombies",
            "outputs": [
                {
                    "internalType": "string",
                    "name": "name",
                    "type": "string"
                },
                {
                    "internalType": "uint256",
                    "name": "dna",
                    "type": "uint256"
                }
            ],
            "stateMutability": "view",
            "type": "function"
        }
    ],
    "bytecode": "6080806040523460245760105f55662386f26fc1000060015561054490816100298239f35b5f80fdfe60806040526004361015610011575f80fd5b5f3560e01c80632052465e1461037e578063528b7b8f1461034c5763a08957bf1461003a575f80fd5b346103485760203660031901126103485760043567ffffffffffffffff811161034857366023820112156103485780600401359067ffffffffffffffff821161030d5760405191610095601f8201601f1916602001846104c8565b8083526020830191366024838301011161034857815f92602460209301853784010152335f52600460205260405f2054610348576040516100f26020828181019486518091875e81015f838201520301601f1981018352826104c8565b5190206001549081156103345706906040516040810181811067ffffffffffffffff82111761030d57604052818152602081018381526002546801000000000000000081101561030d5780600161014c9201600255610460565b929092610321575180519067ffffffffffffffff821161030d576101708454610490565b601f81116102c8575b50602090601f83116001146102625760019392915f9183610257575b50505f19600383901b1c191690831b1783555b519101556002545f19810190811161024357805f52600360205260405f20336bffffffffffffffffffffffff60a01b825416179055335f52600460205260405f20928354935f1985146102435760017f88f026aacbbecc90c18411df4b1185fd8d9be2470f1962f192bf84a27d0704b79501905561023860405193849384526060602085015260608401906104ea565b9060408301520390a1005b634e487b7160e01b5f52601160045260245ffd5b015190505f80610195565b90601f19831691855f52815f20925f5b8181106102b05750916001959492918387959310610298575b505050811b0183556101a8565b01515f1960f88460031b161c191690555f808061028b565b92936020600181928786015181550195019301610272565b845f5260205f20601f840160051c81019160208510610303575b601f0160051c01905b8181106102f85750610179565b5f81556001016102eb565b90915081906102e2565b634e487b7160e01b5f52604160045260245ffd5b634e487b7160e01b5f525f60045260245ffd5b634e487b7160e01b5f52601260045260245ffd5b5f80fd5b34610348576020366003190112610348576004355f526003602052602060018060a01b0360405f205416604051908152f35b3461034857602036600319011261034857600435600254811015610348576103a590610460565b506040515f82546103b581610490565b808452906001811690811561043c5750600114610400575b506103f6926103e08360019303846104c8565b01546040519283926040845260408401906104ea565b9060208301520390f35b5f848152602081209092505b81831061042257505081016020016103f66103cd565b60018160209294939454838588010152019101919061040c565b60ff191660208581019190915291151560051b840190910191506103f690506103cd565b60025481101561047c5760025f5260205f209060011b01905f90565b634e487b7160e01b5f52603260045260245ffd5b90600182811c921680156104be575b60208310146104aa57565b634e487b7160e01b5f52602260045260245ffd5b91607f169161049f565b90601f8019910116810190811067ffffffffffffffff82111761030d57604052565b805180835260209291819084018484015e5f828201840152601f01601f191601019056fea2646970667358221220bb08ca251145aa0ace45b58a948deb37f39f5ef5478808484900fe67d5ad50df64736f6c634300081b0033",
    "sourcePath": "c:/Users/usama/Desktop/solidity/ZombieFactory.sol",
    "compiler": {
        "name": "solc",
        "version": "0.8.27+commit.40a35a09"
    },
    "functionHashes": {
        "CreateRandomZombie(string)": "a08957bf",
        "zombieToOwner(uint256)": "528b7b8f",
        "zombies(uint256)": "2052465e"
    },
    "gasEstimates": {
        "creation": {
            "codeDepositCost": "269600",
            "executionCost": "44530",
            "totalCost": "314130"
        },
        "external": {
            "CreateRandomZombie(string)": "infinite",
            "zombieToOwner(uint256)": "2353",
            "zombies(uint256)": "infinite"
        },
        "internal": {
            "_createZombie(string memory,uint256)": "infinite",
            "generateRandomDna(string memory)": "infinite"
        }
    }
}